:0300000002000EED
:0C000E00787FE4F6D8FD758109020055EA
:0B00C4001200D41200B61200D880FE1B
:0400CF000208000023
:0400D400E4F58922A4
:0300D800D28C22A5
:0300DB00C28C22B2
:0E00B600D2AF438901758CDCE4F58AD2A92211
:07000300758CDCE4F58A2294
:03000B0002009A56
:02009A00C0E0C4
:10009C001200030509E5097002050864644508703F
:0700AC0006F508F509B2A0FA
:0300B300D0E03268
:10001A000200C4E493A3F8E493A34003F68001F238
:10002A0008DFF48029E493A3F85407240CC8C333E7
:10003A00C4540F4420C8834004F456800146F6DFB6
:10004A00E4800B01020408102040809000CFE47E77
:10005A00019360BCA3FF543F30E509541FFEE493AB
:10006A00A360010ECF54C025E060A840B8E493A372
:10007A00FAE493A3F8E493A3C8C582C8CAC583CA9D
:10008A00F0A3C8C582C8CAC583CADFE9DEE780BE55
:0100D300002C
:00000001FF
