:0300000002010DED
:0C010D00787FE4F6D8FD75810D020154E6
:08023C0048656C6C6F0D0A00AF
:100003007F807E2512020AE50D60FCE4F50D7BFF7F
:090013007A02793C1201DD80EE55
:03001C00010D00D3
:10020A00438780759850438920AB07AA06E4F9F81A
:10021A00FF7EE1FDFC120199EFF404F58D858D8BCB
:09022A00C2ABD2ACD2AFD28E22DD
:03002300020233A3
:09023300309805C298750D0132E6
:0601DD008B088A09890A63
:1001E300E4F50BF50CAB08AA09A90A120026601660
:1001F300050AE50A7002050914F9120026F599307B
:0602030099FDC29980DFA5
:0102090022D2
:10011900020003E493A3F8E493A34003F68001F2F9
:1001290008DFF48029E493A3F85407240CC8C333E7
:10013900C4540F4420C8834004F456800146F6DFB6
:10014900E4800B010204081020408090001CE47E2A
:10015900019360BCA3FF543F30E509541FFEE493AB
:10016900A360010ECF54C025E060A840B8E493A372
:10017900FAE493A3F8E493A3C8C582C8CAC583CA9D
:10018900F0A3C8C582C8CAC583CADFE9DEE780BE55
:01001F0000E0
:10002600BB010689828A83E0225002E722BBFE02D8
:09003600E32289828A83E493220B
:10019900C2D5E830E70FB2D5E4C39BFBE49AFAE491
:1001A90099F9E498F8EC30E717B2D51201CF1200AB
:1001B9007BE4C39BFBE49AFAE499F9E498F8800399
:1001C90012007B30D50DE4C39FFFE49EFEE49DFD44
:0401D900E49CFC2284
:10003F0075F008758200EF2FFFEE33FECD33CDCC78
:10004F0033CCC58233C5829BED9AEC99E5829840FB
:10005F000CF582EE9BFEED9AFDEC99FC0FD5F0D6D8
:10006F00E4CEFBE4CDFAE4CCF9A88222B800C1B902
:10007F000059BA002DEC8BF084CFCECDFCE5F0CB40
:10008F00F97818EF2FFFEE33FEED33FDEC33FCEB79
:10009F0033FB10D703994004EB99FB0FD8E5E4F934
:1000AF00FA227818EF2FFFEE33FEED33FDEC33FC21
:1000BF00C933C910D7059BE99A4007EC9BFCE99A15
:1000CF00F90FD8E0E4C9FAE4CCFB2275F010EF2F5A
:1000DF00FFEE33FEED33FDCC33CCC833C810D7075A
:1000EF009BEC9AE899400AED9BFDEC9AFCE899F895
:0E00FF000FD5F0DAE4CDFBE4CCFAE4C8F92228
:00000001FF
